:020000021000EC
:10F000000000012033F10100D9F00100DBF0010024
:10F01000DDF00100DFF00100E1F001000000000080
:10F02000000000000000000000000000E3F001000C
:10F03000E5F0010000000000E7F00100E9F0010048
:10F04000E9F20200EDF00100EFF00100A9ED02008D
:10F05000F3F0010015260300B1E502009DF3020064
:10F06000FBF00100FDF00100FFF0010001F10100E3
:10F0700003F1010005FB020007F1010009F10100A5
:10F080000BF10100350203000FF1010011F1010045
:10F090000103030015F10100A11B030019F1010098
:10F0A0001BF101001DF101001FF10100A12403006B
:10F0B000EDF0020091F802000000000000000000E6
:10F0C00027F1010029F101002BF101002DF10100D0
:08F0D0002FF1010031F10100F4
:10F0D800FEE7FEE7FEE7FEE7FEE7FEE7FEE7FEE700
:10F0E800FEE7FEE7FEE7FEE7FEE7FEE7FEE7FEE7F0
:10F0F800FEE7FEE7FEE7FEE7FEE7FEE7FEE7FEE7E0
:10F10800FEE7FEE7FEE7FEE7FEE7FEE7FEE7FEE7CF
:10F11800FEE7FEE7FEE7FEE7FEE7FEE7FEE7FEE7BF
:10F12800FEE7FEE7FEE7FEE7FEE70348854600F058
:10F13800F5F800F003B87047000001203749384857
:10F148000A1A02D0072291438D46364936480A1AD0
:10F1580006D00722914381F30988022282F314889A
:10F1680032483349334A00F048F833483349344A7F
:10F1780000F043F833483449344A00F03EF8344844
:10F188003449354A00F039F834483549354A00F0F1
:10F1980034F835483549364A00F02FF835483649AD
:10F1A800364A00F02AF836483649374A00F025F83A
:10F1B80036483749002200F02BF8364836490022F5
:10F1C80000F026F835483649091A082903DB0022D9
:10F1D8000260043001601F481F49884205D0026858
:10F1E800043003B4904703BCF7E700208646EC469A
:10F1F800002000212B4A9047FEE7884207D0521A88
:10F2080005D0037801300B700131013AF9D170470C
:10F21800884202D002700130FAE7704700000120EE
:10F2280000FC00200000012000000120A06904006B
:10F23800B0420020A8430020B0F20100B0F2010063
:10F24800C8BE0300A0690400B0420020B0420020FC
:10F25800C8BE0300C8BE0300C8BE0300C8BE030082
:10F26800C8BE0300C8BE0300C8BE0300C8BE030072
:10F27800A0690400986A0400A8430020A84300205D
:10F28800986A0400A8430020B8430020B84300202F
:10F2980038910020389100203C9100203C910020BA
:08F2A8003C95002019F701005C
:10F2B0000C4B1B78062B10D10B4B1B681A070CD17B
:10F2C0000A4B186800F0F003302B08D000F0E00083
:10F2D000A0F1400358425841704700207047012078
:10F2E000704700BFE00F00F0E40F00F0E80F00F0FF
:10F2F000094B1B78062B0CD1084B1B681A0708D149
:10F30000074B186800F0F000A0F130035842584154
:10F3100070470020704700BFE00F00F0E40F00F0DE
:10F32000E80F00F008B5FFF7C3FF28B1534B544A6C
:10F330001B68C3F304231360FFF7DAFF10B1514BCE
:10F34000514A1A60FFF7B4FF28B1504B504A1B686E
:10F35000C3F342331360FFF7CBFF20B14D4AD368AC
:10F3600023F08073D360FFF7A3FF40B14FF08043D9
:10F370000022C3F80C21C3F81021C3F83825FFF789
:10F38000B7FF10B1444B03221A60FFF7B1FF40B141
:10F39000424B05221A6001229A6700229A603F229E
:10F3A0005A603F4B1B78062B50D13E4B1B681B0706
:10F3B0004CD13D4B1B6803F0F003502B46D14FF06E
:10F3C00080523A4BD2F80414C3F82015D2F808142E
:10F3D000C3F82415D2F80C14C3F82815D2F8101469
:10F3E000C3F82C15D2F81414C3F83015D2F8181439
:10F3F000C3F83415D2F81C14C3F84015D2F8201401
:10F40000C3F84415D2F82414C3F84815D2F82814C8
:10F41000C3F84C15D2F82C14C3F85015D2F8301498
:10F42000C3F85415D2F83414C3F86015D2F8381460
:10F43000C3F86415D2F83C14C3F86815D2F8401428
:10F44000C3F86C15D2F84424C3F87025FFF730FFD9
:10F4500028B1174B174A1B6803F04F031360164A75
:10F46000D2F8883043F47003C2F88830BFF34F8F6E
:10F47000BFF36F8F114B124A1A6008BD24030010AE
:10F480004035014074C007400DF0ADBA4402001091
:10F490003C050040F0ED00E0A005004010560040A3
:10F4A000E00F00F0E40F00F0E80F00F000C00040B3
:10F4B00058020010E40E004000ED00E0B0420020D1
:10F4C0000090D0030048704730910020BFF34F8F69
:10F4D0000549064BCA6802F4E0621343CB60BFF3F0
:10F4E0004F8F00BFFDE700BF00ED00E00400FA050C
:10F4F00032DF70473EDF70471F4B204A1B6800BF5A
:10F5000000BF00BF00BF00BF00BF00BF00BF9342ED
:10F510002FD000BF00BF00BF00BF00BF00BF00BFB3
:10F5200000BF00BF00BF00BF00BF00BF00BF00BFE3
:10F5300000BF00BF00BF00BF00BF00BF00BF00BFD3
:10F5400000BF00BF00BF00BF00BF00BF00BF00BFC3
:10F5500000BF00BF00BF00BF00BF00BF00BF00BFB3
:10F5600000BF00BF00BF00BF00BF00BF00BF00BFA3
:10F5700000BF0138C3D17047B04200200024F4001E
:10F580000378012B10B53DD0B3B3022B49D12549E7
:10F59000032012F09AFB0320234912F096FB01206E
:10F5A00003F0C0FC18B1214A812110F095FC02F053
:10F5B000DFFF18B11D4A842110F08EFC4FF0A043EC
:10F5C0001B4AC3F82C274FF40032C3F8302741F20E
:10F5D0008830FFF791FFFFF78BFF164904460220A2
:10F5E00012F073FB02F020FFB0B99CB10F4A9521D5
:10F5F000204610F071FC0DE00F490320BDE81040DB
:10F6000012F063BB03200D4912F05FFB41F288301A
:10F61000FFF772FFFFF75AFF0949022012F055FB6E
:10F62000FEE710BD11C103004AC1030079C1030008
:10F630000C000300D1C1030098C00300D3C0030035
:10F6400055C2030013B5037800930446037942883A
:10F650001649032012F050FB2378012B24D102F02D
:10F6600087FF18B1124AC32110F036FC4FF0A043B7
:10F670004FF40032C3F834270E49022012F025FB64
:10F68000FFF736FF044602F0CFFE40B964B1084AE6
:10F69000D021204602B0BDE8104010F01DBC064944
:10F6A000022012F012FBFEE702B010BD9ABF030069
:10F6B00079C10300E2BF030055C203002DE9F04306
:10F6C000144685B0054650680E4612F0FDFAA7684C
:10F6D000B4F800908046384612F0CAFC12F0F4FAF2
:10F6E0002A4633460B49CDE90270CDE90089012055
:10F6F00012F01CFB022001F0C5FD41F28830FFF73B
:10F70000FBFE22463146284605B0BDE8F04310F026
:10F71000F1BB00BF37BF030070B5002090B012F0FE
:10F72000C1FA20B1594A4FF4B27110F0D5FB5849D3
:10F73000032012F0CAFA574A3C21082010F006FCB8
:10F7400020B1524A40F2691110F0C6FB10F03EFFA2
:10F7500020B14E4A40F26B1110F0BEFB4E4B0793A6
:10F7600007A802F069FE20B1484A4FF4AC7110F0CE
:10F77000B3FB4A48FFF7C0FE2022002107A81CF077
:10F7800093F840F21C53ADF82230454A454B4649A8
:10F79000CDE90923454BCDE90B13454B0D930A23C6
:10F7A0008DF838300F20434B0F9302F051FA20B1FF
:10F7B000364A4FF4857110F08FFB3F4C3F4801945F
:10F7C00001A901F093FD20B1304A4FF4887110F087
:10F7D00083FB03AA02A93A48CDE9024403F058FD8D
:10F7E00020B12A4A4FF48C7110F076FB354802F0B4
:10F7F00047F820B1254A4FF4917110F06DFB324B60
:10F800003248079307A902F023FC20B11F4A40F2B7
:10F81000271110F061FB41F2883002F0C5FB20B1E6
:10F820001A4A4FF4957110F057FB294B0493244B5F
:10F83000059304A80423069300F0FEFB20B1134AAD
:10F840004FF4997110F048FB012001F01BFD20B12D
:10F850000E4A40F2351110F03FFB1E4D0B4C402676
:10F8600010F0FEFBF1EE103A23F09F03E1EE103AA8
:10F87000F1EE103AC5F88461FFF73CFE0028EFD0A6
:10F880002246B12110F028FBEAE700BF79C103004E
:10F890004CC00300B84300208CC00300A0860100C8
:10F8A0000D1101041C0C5E1060E3160020BF020065
:10F8B0006F001C0CC8BE030044C00300904700202A
:10F8C00088470020A047002045F601009847002007
:10F8D00081F5010000E100E06DDF704776DF7047E1
:10F8E0007ADF70477CDF70477FDF70478FDF7047BC
:10F8F0009EDF7047A9DF7047ADDF704769DF704753
:10F9000066DF704731DF70473DDF70471F4B204A8D
:10F910001B6800BF00BF00BF00BF00BF00BF00BF2B
:10F9200000BF93422FD000BF00BF00BF00BF00BF89
:10F9300000BF00BF00BF00BF00BF00BF00BF00BFCF
:10F9400000BF00BF00BF00BF00BF00BF00BF00BFBF
:10F9500000BF00BF00BF00BF00BF00BF00BF00BFAF
:10F9600000BF00BF00BF00BF00BF00BF00BF00BF9F
:10F9700000BF00BF00BF00BF00BF00BF00BF00BF8F
:10F9800000BF00BF00BF0138C3D17047B0420020A4
:10F990000024F40010B5024604460649012012F086
:10F9A00098F92046044A4FF48B71BDE8104010F0DE
:10F9B00093BA00BF58C4030094C40300024A4FF432
:10F9C000247110F089BA00BF94C4030007B5002366
:10F9D00001A8019311F02EF818B1054A852110F005
:10F9E0007BFA0198003018BF012003B05DF804FBDA
:10F9F00094C40300F0B5044685B00DF09BFA204690
:10FA00000DF008FA574E584F00253368AB4212D814
:10FA1000214656480DF026FB2388212B00F09280CA
:10FA200025D8102B4ED00FD8012B79D020460DF0C1
:10FA3000EBF805B0F0BD3B6803EBC5035B680BB1A9
:10FA4000204698470135E0E7112B4AD0132BEDD122
:10FA5000474800231A4685210088FFF745FF002804
:10FA6000E4D0444A4FF4C27110F036FADEE73A2B84
:10FA700062D006D8222BD9D13F49032012F025F9B4
:10FA8000D4E7522B3FD0552BD0D13C49E2880320FC
:10FA900012F01FF94FF48A71A088FFF72DFF20B1F3
:10FAA000344A40F2971110F017FA3549E3882F488D
:10FAB000A1F801300DF0C0FC0028B7D02D4A40F26B
:10FAC0009B11D1E72F49032012F0FFF8284BA288A1
:10FAD0001A8000238DF804302B4B01A81B6898472F
:10FAE000A4E7227A2949032012F0F3F8204B4FF6BD
:10FAF000FF721A80FFF76AFF254A012308B11370CD
:10FB000094E71070E6E71A4800231A461946008861
:10FB1000FFF7F0FE002889D0164A4FF4C571A3E71D
:10FB2000134B00211888FFF7EBFE00283FF47EAF4F
:10FB3000104A40F28F1197E762891649032012F0AC
:10FB4000C8F873E71449032012F0BFF800221146E9
:10FB5000A088FFF7CBFE00283FF468AF054A4FF4BA
:10FB6000D47181E734490020304900203849002011
:10FB7000B442002094C4030013C403002EC3030046
:10FB800028490020A4C2030010490020E0C203005D
:10FB9000144900207CC30300C6C303001FB50446FC
:10FBA00010F054FF204601F0AFFF2046023C0DF05C
:10FBB00065F8012C0CD8FFF709FF48B9054B1B78F5
:10FBC00033B101238DF80430034B01A81B6898471B
:10FBD00004B010BD14490020104900201FB538B1F1
:10FBE000032802D10D4912F070F805B05DF804FB4E
:10FBF0000B49032012F069F802238DF80430094BF9
:10FC000001A81B68984703200CF0EAFE0028ECD0FE
:10FC1000054A4FF4AA7110F05FF9E6E7C1CB030083
:10FC2000F8CB03001049002094C4030008B5037802
:10FC300083B90D49012012F048F80C4B3B2118887C
:10FC4000FFF74CFE70B10A4A4FF48171BDE80840DD
:10FC500010F042B9012B05D106490320BDE8084048
:10FC600012F033B808BD00BF2FCC0300B44200200F
:10FC700094C403007CCC030038B5124B1B6893F886
:10FC80002820022A04D801F0A7FF0025284638BD05
:10FC90000D4C17334FF43E71636004F10A000B4BB7
:10FCA000216022816361FFF717FE05460028EDD130
:10FCB000E37A20460233E37201F04CFF01F06AFF61
:10FCC000E4E700BF0C490020F4480020BDF9010022
:10FCD00073B515461C46062900F29180DFE801F055
:10FCE000041B25576B78A7000A2C00F28880614E10
:10FCF0002246294630681BF0AEFD336800221A55B3
:10FD0000DC725C4B186800F071FD002877D05A4A0D
:10FD10004FF44B717EE0032C71D1564B186822468C
:10FD200029460C301BF097FDEBE7082C67D1514EAC
:10FD30003068224629460F301BF08DFD22460021F7
:10FD400068461BF0B1FD3368197CDA7B42EA012278
:10FD5000ADF80020997C5A7C42EA0122ADF80220DD
:10FD6000DA7C197D42EA0122ADF804205A7D9B7DA0
:10FD7000684642EA0323ADF806300DF0A3F80028E8
:10FD8000BFD03D4A40F2E22110F0A6F8B9E7112CAD
:10FD900035D8384E30682246294617301BF05BFDB7
:10FDA000336883F82840FFF767FF0028A9D0324A5C
:10FDB00040F2F121E8E7FA2C21D82E4E3068224695
:10FDC000294629301BF047FD336883F8234198E723
:10FDD000032C14D11378012B1FD12849B2F801202C
:10FDE000204611F076FF264BB5F801101888FFF772
:10FDF0007FFD30B92246294622481BF02CFD02B077
:10FE000070BD204920480DF017FB0028F7D01A4A92
:10FE100040F20E3110F060F8F1E71A491A480DF07F
:10FE20000BFB0028EBD0144A4FF44571F2E7F72C96
:10FE3000E5D8104E30682246294600F595701BF033
:10FE40000AFD3368E4B283F8214209F039F920B1A0
:10FE5000094A40F21F3110F03FF83068214600F5A2
:10FE6000957008F0E1FF00283FF44BAF024A4FF4D1
:10FE7000487189E70C49002094C40300C8CC0300F2
:10FE8000B442002028490020384900202DE9F047DD
:10FE9000C2B002AF09F03AF9044658B15A4811F01D
:10FEA00013FF009440F2BF3302465849022011F07C
:10FEB00023FF1DE0564C57492068162200F5957027
:10FEC0001BF0F6FB002840F08C802021524809F0FE
:10FED0006FF8E846044688B14B4811F0F5FE0094EF
:10FEE0004FF4717302464949022011F005FFC546DF
:10FEF000204607F58077BD46BDE8F08788B002ADA3
:10FF00008DF808004549DFF82C9128461BF051FC7C
:10FF1000434928461BF04DFC0426A24619F8012B44
:10FF20004049A7F808A007F10800BC72013E1BF089
:10FF30002BFC07F1080128461BF03BFC16F0FF06DE
:10FF4000ECD1284611F0C0FE37490246032011F0DB
:10FF5000C0FE1B21284608F0B7FF044630B12A48EE
:10FF600011F0B2FE00944FF47673BBE716222F49CE
:10FF7000012008F0E9FF044630B1234811F0A4FE47
:10FF8000009440F2DB33ADE709F044F8044630B1A9
:10FF90001D4811F099FE009440F2DE33A2E7F723EA
:10FFA000F91D07F10800FB7108F076FF044630B137
:10FFB000154811F089FE009440F2E23392E7FB7994
:10FFC0001B4887F8FF3007F108010DF04CFA044692
:10FFD00000288CD00C4811F077FE009440F2E633F4
:10FFE00080E7206890F8211200F5957008F01CFF5A
:10FFF000044600283FF47CAF034811F065FE0094EE
:020000022000DC
:1000000040F2EB3350E700BF94C403000ACB030077
:100010000C49002010C603005CCB030015490020EA
:10002000B7C703007CCB030081CB0300ABCB03003D
:10003000384900202B4900202DE9F04FAE4B0268D3
:10004000AE4D1A60AE4C43682B6083682360AD4BA5
:10005000AD491868AD4BB3B04FF4A6720C900CA824
:1000600011F04AFDCDE9045420B1A94A40F2FD1136
:100070000FF032FF14AE00233046149311F0A6FDAA
:1000800020B1A34A40F201210FF026FF0C220021EB
:1000900023A81BF009FC01238DF88C30149A4FF42F
:1000A0008A7323A92320ADF88E30FFF727FC20B1F7
:1000B000974A40F20A210FF00FFF0C22002123A8DB
:1000C0001BF0F2FB01238DF88C308DF88E30149AE2
:1000D000062323A92020ADF89030FFF70FFC20B1B4
:1000E0008B4A40F212210FF0F7FE0C22002123A8C8
:1000F0001BF0DAFB01238DF88C30149A102323A90E
:1001000022208DF88E30FFF7F9FB20B1804A40F2B3
:1001100019210FF0E1FE0C22002123A81BF0C4FBE3
:1001200001238DF88C30149A022323A921208DF805
:100130008E30FFF7E3FB20B1754A4FF408710FF0E2
:10014000CBFE0C22002123A81BF0AEFB0323149A44
:100150008DF88C3023A90120FFF7D0FB20B16C4A29
:1001600040F225210FF0B8FE0C22002123A81BF03D
:100170009BFB0123149A8DF88C3023A94020FFF7B4
:10018000BDFB20B1624A40F22A210FF0A5FE0C22ED
:10019000002123A81BF088FB40F6E443149A239324
:1001A00023A9A120FFF7AAFB20B1594A40F22F2131
:1001B0000FF092FE0C22002123A81BF075FB9DF886
:1001C0008C30149A43F0010323A9A0208DF88C30C1
:1001D000FFF794FB20B14E4A4FF40D710FF07CFEF7
:1001E000304611F0FDFC20B1494A40F237210FF0B2
:1001F00073FE484811F0C0FC0546002840F0878295
:10020000454811F0C3FC0546002840F080820120DB
:10021000FFF778FB0546002840F079820120FFF7C0
:1002200073FB0546002840F072823C4AD2F88830C1
:1002300043F47003C2F88830BFF34F8FBFF36F8F62
:100240008DF88C0023A80FF019FC354D06249DF87D
:100250008C20032A18D93349DFF8CC80032011F011
:1002600038FD042130480FF01BFC0546E8B1284852
:1002700011F02AFD00950246A4232C49022011F01A
:100280003BFD2A462A49A2E12946022011F01DFD24
:1002900023A80FF0F3FB013C41F28830FFF736FB57
:1002A00014F0FF04D3D10D25EBE72249224F0320A0
:1002B00011F00BFD4446042514F8012B3946132098
:1002C000013D11F006FD15F0FF05F5D11B4C1C4951
:1002D000132011F0FAFC21461A4800F015FB0746DE
:1002E000A0B302461849012011F0F3FC3D46284610
:1002F00033B0BDE8F08F00BF104900203049002026
:1003000034490020A0C20300A8470020651C030058
:1003100094C40300F5F901009DFB010000ED00E02D
:1003200008C7030056C703002B4900200ACB03006F
:1003300090CA03008CC703007CCB03000C4900204B
:100340006BD30300E6C40300B9C703002368DFF8DA
:10035000DC9293F824A193F825B193F82621039217
:100360000AEA0B010A40FF2A4BD10025FF23009324
:100370001A46A049032011F0BFFC99F800303BB1A8
:10038000039B009352465B469B49032011F0B4FC4B
:10039000206890F82830112B09D90E229749173080
:1003A0001BF059FA23680E2283F8282001252068C3
:1003B00090F82331FA2B09D90022914929301BF0FA
:1003C0004AFA2368002283F823210125206890F847
:1003D0002132013BDBB2F62B2DD91622894900F5DB
:1003E00095701BF038FA2368162283F821222068C2
:1003F00000F0FCF908B3844A40F277310FF06CFD4D
:100400001BE0FF22914283F8242183F8252183F801
:1004100026214FF001030CD07C4889F8003000F011
:10042000E5F90028A1D0784A40F24F310FF054FD91
:100430009CE71D469AE7002DD9D125680023284660
:100440008DF850301BF085FA294682B23046FFF70E
:1004500049FA18B16C4AC3210FF03EFD0822002171
:1004600023A81BF021FA2368197CDA7B42EA0122D7
:10047000ADF88C20997C5A7C42EA0122ADF88E209E
:10048000DA7C197D42EA0122ADF890205A7D9B7DED
:1004900023A842EA0323ADF89230FFF721FA072898
:1004A00005461CD120680023062203748374C3749C
:1004B00003754023C2734375182201234274837568
:1004C00000F094F90546002840F01E8150494FF095
:1004D000A07323A8CDE92313FFF702FA0546002DE8
:1004E00040F01281049B4B48D3F800A0059BD3F841
:1004F00000B02368239323A9474B24930CF08CFE70
:1005000020B1414A40F299310FF0E6FCBB4562D17F
:100510004FF48073ADF81C303E4B3C221B788DF8B5
:100520001E30002130461BF0BFF94FF4C063ADF818
:100530005230012707AB202200214FF002090CA8FE
:1005400017938DF85090ADF858701BF0ADF92368F3
:100550008DF833709A8910929B7B11933C22002175
:1005600023A81BF0A1F998F803308DF8203098F8F3
:1005700002308DF8213098F801308DF8223098F84B
:1005800000308DF823305923ADF8243008AB0B939D
:100590000423ADF8283009AA00238DF88C302C9262
:1005A00000930CAA1D4B23A930460CF065F90546B3
:1005B00000283DD0144811F087FB194900950246E8
:1005C00040F28323484611F097FB16492A46012042
:1005D00011F07FFB8BE65AF837300BB9013795E7FE
:1005E00099F80000984705460028F7D002460E49C2
:1005F000EDE700BFF5C7030034C80300FDC40300E6
:100600000FC5030010C6030094C40300E6C4030032
:100610000600180038490020D1FC0100DDFB010074
:100620000ACB0300A1C803000DCA0300274900201C
:1006300038460CF01BF929461C2223A81BF034F97C
:100640002946082230461BF02FF92368197CDA7BF3
:1006500042EA0122ADF85020997C5A7C42EA0122FC
:10066000ADF85220DA7C197D42EA0122ADF854201F
:100670005A7D9B7DADF89A5042EA0323ADF856307F
:100680004FF400424FF47023CDE92423214B2893EB
:100690000324214B8DF89C5023A823968DF8984075
:1006A00029930CF081FB054638B920460CF098F9E7
:1006B000054628B10246194989E70246184986E7E6
:1006C000184801F059FE054610B1024616497EE76A
:1006D000144811F0F9FA15490246132011F0F9FAFD
:1006E000FFF7D4FB054610B1024611496FE742F20D
:1006F0001070FFF70BF9FFF7BFFA054600283FF42B
:10070000F6AD02460B4962E72A460B495FE72A46E7
:100710000A495CE72DFC010095F9010017C90300A7
:10072000DCC803001549002057C9030091C9030024
:10073000A2C90300D5C9030056CA0300D1CA0300E9
:1007400073B505784368012D04461ED06EB25EB1C4
:10075000052D31D003202A461B4911F0C3FA6068E9
:1007600008B31A4A7B210BE01BB9194B01221A70FE
:1007700019E01849012011F0A8FA144A5D2100205F
:1007800002B0BDE870400FF0A7BB73B98389B3F521
:10079000005F08D1C2890092027C0F49032011F04A
:1007A000ABFA0E4B1D7002B070BD0D49284611F01A
:1007B0008CFA064A6F21E2E7002BF4D109490320A5
:1007C00011F083FA084BD1E74CCF030049CE030068
:1007D000AD4B00201ACE0300A1CE0300AE4B00208B
:1007E000EACE03001ACF0300AC4B002030B5184905
:1007F000054689B0032011F068FA35B3154C40F274
:1008000022222946201D1BF026F8422323608A233A
:10081000ADF81030104B059303AB069305A90123E7
:100820000E480394ADF81C3011F050F8044648B15E
:100830000B4811F049FA0094024698230949022016
:1008400011F05AFA204609B030BD0E24FAE700BF75
:100850003DCD03008449002000200120B04B002042
:1008600049CE03006ECD030030B5082287B00021C9
:1008700005460DEB02001BF017F81D49032011F08F
:1008800024FA02AB1B4A42F201014FF4005011F06E
:1008900047F8044660B1184811F016FA0094A923ED
:1008A00002461649022011F027FA204607B030BD53
:1008B00004A9104810F0C4FF044628B10E4811F0F6
:1008C00003FA0094AC23EBE74FF40A7205990C4845
:1008D0001AF0C1FF074810F0D5FF044628B10648BA
:1008E00011F0F2F90094B123DAE7064B2B60DCE754
:1008F0000DCD0300B04B002049CE03006ECD0300A8
:100900008449002088490020F0B5054689B00E468C
:1009100003203D4911F0D9F9002D72D03B4810F069
:10092000AFFE044660B13A4811F0CEF90094C223FC
:1009300002463849022011F0DFF9204609B0F0BD27
:1009400010F0B0FE044600283AD1334C2378002B37
:100950003CD010F0C3FF044600283AD12F4C237836
:10096000002B3CD03046FFF77FFF0A28044640D1D9
:100970002B4C2C490320271D11F0A7F9294640F2E2
:10098000222238461AF067FF422323608A23ADF8FB
:100990001030254B059303AB0693244D2448039454
:1009A0000123ADF81C3005A900232B7010F08AFF3D
:1009B0000446B8B1164811F087F90094EB23B7E765
:1009C000134811F081F90094C523B1E70FF048FBFB
:1009D000BCE70F4811F078F90094CD23A8E70FF099
:1009E0003FFBBCE737602B78002BA6D10FF038FB1C
:1009F000F9E70028A1D0064811F066F90094F62323
:100A000096E70E2499E700BFC0CD0300410702001E
:100A100049CE03006ECD0300AD4B0020AC4B00204F
:100A200084490020E9CD030000200120AE4B0020C6
:100A3000B04B002037B50578436804465DB1012D01
:100A40001DD003202A46214911F04CF9606840B1BD
:100A50001F4A91210EE033B91E4A012313701E4A2A
:100A6000137003B030BD1D49012011F02EF9184A52
:100A70007221002003B0BDE830400FF02DBAEBB971
:100A8000838941F20102934208D1C2890092027C1B
:100A90001349032011F030F9124B1D70A38941F264
:100AA00003029342DDD1E28900920F49227C0320A8
:100AB00011F022F90D4B01221A70D2E70C49284699
:100AC00011F003F9024A8C21D3E700BFDDD0030007
:100AD000ABCF0300CE4B0020CC4B00207CCF0300DB
:100AE0000BD00300CF4B00205BD00300CD4B002088
:100AF000ADD0030030B51749054689B0032011F089
:100B0000E4F82DB3144C0C222946201D1AF0A3FE44
:100B1000422323600423ADF81030104B059303AB40
:100B2000069305A901230E480394ADF81C3010F07C
:100B3000CDFE044648B10B4811F0C6F800940246B9
:100B4000AE230949022011F0D7F8204609B030BD84
:100B50000E24FAE73DD10300BC4B00200110021027
:100B6000E84B0020ABCF03006DD1030030B5082265
:100B700087B0002105460DEB02001AF095FE1D49D5
:100B8000032011F0A2F802AB1B4A41F2020141F22C
:100B9000010010F0C5FE044660B1184811F094F849
:100BA0000094BF2302461649022011F0A5F8204602
:100BB00007B030BD04A9104810F042FE044628B129
:100BC0000E4811F081F80094C223EBE7102205993A
:100BD0000C481AF040FE084810F054FE044628B1B4
:100BE000064811F071F80094C723DBE7064B2B6031
:100BF000DDE700BF0DD10300E84B0020ABCF0300C1
:100C00006DD10300BC4B0020C04B002010B5014645
:100C100088B038B3144C0822201D1AF01CFE422361
:100C200023600323ADF8103003F1102303F5802374
:100C3000059303AB069305A901230C480394ADF873
:100C40001C3010F043FE044648B1094811F03CF84E
:100C500000940246E6230749022011F04DF8204691
:100C600008B010BD0E24FAE7D04B0020DC4B00206A
:100C7000ABCF03006DD1030030B5082287B000214F
:100C800005460DEB02001AF00FFE02AB1A4A41F2C4
:100C9000040141F2030010F043FE044660B117481E
:100CA00011F012F80094F72302461549022011F0C2
:100CB00023F8204607B030BD04A90F4810F0C0FD4E
:100CC000044628B10D4810F0FFFF0094FA23EBE72B
:100CD0000C2205990B481AF0BEFD074810F0D2FD12
:100CE000044628B1054810F0EFFF0094FF23DBE72E
:100CF000054B2B60DDE700BFDC4B0020ABCF0300D2
:100D00006DD10300D04B0020D44B00202DE9F043DF
:100D1000064689B088460320604915461F4610F0F4
:100D2000D4FF002E00F0B780002D00F0B4805C48A6
:100D300010F0A6FC044658B15A4810F0C5FF0094C4
:100D40004FF48A7302465849022010F0D5FF92E012
:100D500010F0A8FC0446002838D1DFF87891534CF5
:100D600099F80030002B38D02378002B35D040463E
:100D7000FFF7FCFE0A28044671D14D4C4D49032073
:100D800004F1040910F0A1FF31460C2248461AF084
:100D900062FD422323600423ADF81030464B0593D7
:100DA00003AB0693454E464803940123ADF81C302F
:100DB00005A90023337010F085FD044680B1394841
:100DC00010F082FF009440F23513BBE7354810F075
:100DD0007BFF009440F21713B4E70FF041F9BFE72F
:100DE000C8F800903378002B36D03846FFF744FF20
:100DF0000A28044646D1EB880193AB88314C009316
:100E00006B882A8830490320261D10F081FF29466F
:100E1000082230461AF01FFD422323600323ADF859
:100E2000103003F1102303F58023059303AB0693E1
:100E3000264D274803940123ADF81C3005A9002353
:100E40002B7010F03FFD044690B1164810F03CFFA7
:100E500000944FF4AD7375E70FF002F9C2E7002874
:100E6000C3D0104810F030FF00944FF4A07369E72E
:100E70003E602B781BB1204609B0BDE8F0830FF02F
:100E8000EFF8F6E70028F6D0064810F01DFF0094B2
:100E900040F2651356E70E24EDE700BFBFD1030013
:100EA000350A0200ABCF03006DD10300CC4B00200C
:100EB000BC4B0020E8D1030001100210CF4B0020F2
:100EC000E84B0020D04B002019D20300CD4B00206E
:100ED000DC4B0020CE4B002030B5174987B00546CB
:100EE000164800F05DFB044668B1154810F0ECFEB2
:100EF000009402464FF4A7731249022010F0FCFE42
:100F0000204607B030BD45B10C4800F0BDFA20B115
:100F10000B4A40F253110EF0DFFF074B0A481B68E3
:100F2000039300230293094B049302A9084B0593F2
:100F30000CF09CFB0446E3E71C4C0020EBD30300C1
:100F40004CD403009DD40300F44B0020AD110200EB
:100F5000550F020013B5CB7801938B7800930C46A4
:100F60004B780A781849032010F0D2FE21784FF010
:100F7000A0434FF48022D9B1C3F8082561784FF01F
:100F8000A0434FF40022B1B1C3F80825A1784FF077
:100F9000A0434FF4801289B1C3F80825E1784FF0DF
:100FA000A0434FF4001261B1C3F8082502B010BD90
:100FB000C3F80C25E2E7C3F80C25E7E7C3F80C25D6
:100FC000ECE7C3F80C25F1E772D203000B2808B553
:100FD00011D10948828B4FF6FF739A420BD00CF067
:100FE0004FFC30F0080306D0044A40F26F11BDE810
:100FF00008400EF071BF08BDF44B00204CD4030034
:10100000F0B503468DB0002840F0B5805F4B1B68FB
:101010001A7918681F785C789D7803908DF81020F5
:1010200091B9012003F040F8064600282ED0584818
:1010300010F04AFE009602469A235649022010F00C
:101040005BFE30460DB0F0BD032F71D801A353F8FD
:1010500027F000BF2310020065100200711002008B
:10106000711002008B780C784D788DF80F30D8E72E
:101070000C784A788B78003418BF01240AB144F008
:101080000204002BCDD044F00404CAE73F4B1B6898
:101090001B7823B94049032010F017FED1E7012F38
:1010A00018D19DF80F3044EA05021A43C9D08DF8D3
:1010B0001630009339498DF8144003202B46224600
:1010C0008DF8155010F018FE05A9384603F024F8E5
:1010D0000646B6E7022F29D1142201460DEB020085
:1010E0001AF0E2FB07EE905A9FED2D7A2D498DF80C
:1010F0001440F8EEE77A232367EE877A0693FCEE36
:10110000E77A4FF4FA734FF4FA66CDE90A6317EE03
:10111000903A8DF81C30BDF80F300893032010F082
:10112000D4FD05A9012003F09DF8D1E7032F01D0DC
:10113000012686E7142201460DEB02001AF0B4FBEB
:1011400007EE905A9FED167A8DF81440F8EEE77A84
:10115000232367EE877A4FF4FA61FCEEE77A069371
:101160004FF4FA73CDE90A1317EE903A0E498DF851
:101170001C303846D3E70029DAD118681A79039071
:101180008DF810201F785C789D784AE71C4C002071
:101190004CD403009DD40300E8D203001ED3030007
:1011A000333323406ED30300A8D3030008B50B4BA1
:1011B0001B688B4202D0084600F066F90021084601
:1011C000FFF71EFF062807D030B1054A4FF484719F
:1011D000BDE808400EF080BE08BD00BF1C4C0020DA
:1011E0004CD4030013B500210948FFF709FF04465A
:1011F00050B1084810F068FD009402464FF4C773E0
:101200000549022010F078FD204602B010BD00BF55
:10121000F0D303004CD403009DD4030010B5044662
:1012200040B1014612480CF03DF92388102B02D042
:10123000112B11D010BD0F49032010F046FD0E4BAD
:1012400000211868FFF7DCFE0028F3D00B4AE521E7
:10125000BDE810400EF040BE0949032010F035FDF6
:10126000FFF7C0FF0028E5D0044AEC21F0E700BFFB
:10127000F44B0020FAD303001C4C00204CD4030094
:1012800022D4030013B5014690B91448FFF7B8FE05
:10129000044650B1124810F017FD009440F2891333
:1012A00002461049022010F027FD204602B010BD72
:1012B000012804D102B0BDE81040FFF793BF002120
:1012C0000948FFF79DFE04460028EED0044810F0C0
:1012D000FBFC009440F29313E2E700BFEBD3030062
:1012E0004CD403009DD40300F5D3030030B53A4D30
:1012F0003E222A700A686A60384AAA6087B00028CD
:1013000068D0374B4360374B03600DF055F8A8B9F0
:101310000DF024F8044688B1334810F0D5FC009451
:1013200040F2A11302463149022010F0E5FC2E4A9A
:1013300040F2CD1120460EF0CFFD13E040F2666280
:1013400001212B480EF062FD044630B1264810F012
:10135000BBFC009440F2AD13E4E70EF0A7FD044699
:101360000028E4D1234B029340F20243ADF80C3045
:101370000021102302A804958DF8143002F0ACFF70
:1013800020B1194A4FF4EB710EF0A6FD002002F0D7
:101390008BFE012002F088FE4FF0A0430322C3F829
:1013A0004827C3F84C27C3F85027C3F854274FF4F5
:1013B0008022C3F80C254FF40022C3F80C254FF40B
:1013C0008012C3F80C254FF40012C3F80C2500203E
:1013D00007B030BD0E20FBE7784C0020F0D40300AE
:1013E0001D120200D90E02004CD403009DD403004C
:1013F000D0D20300D8D2030037B50578436804463D
:101400005DB1012D1BD003202A46184910F06AFC5B
:10141000606830B1164A74210CE023B9154B0122E3
:101420001A7003B030BD1449012010F04EFC104A70
:101430005D21002003B0BDE830400EF04DBD6BB91A
:101440008389B3F5804FECD1C2890092027C0B49AD
:10145000032010F051FC0A4B1D70E2E709492846B1
:1014600010F033FC024A6F21E3E700BF0BD7030003
:101470003BD60300904C00200CD6030092D603000C
:10148000914C0020DBD6030030B51749054689B0E2
:10149000032010F01AFC2DB3144C05222946201D00
:1014A0001AF0D9F9422323600323ADF81030104B12
:1014B000059303AB069305A901230E480394ADF8E9
:1014C0001C3010F003FA044648B10B4810F0FCFB46
:1014D0000094024691230949022010F00DFC204699
:1014E00009B030BD0E24FAE730D50300844C00204B
:1014F00000400140944C00203BD6030060D503001F
:1015000030B5082287B0002105460DEB02001AF025
:10151000CBF91D49032010F0D8FB02AB1B4A44F263
:1015200001014FF4804010F0FBF9044660B1184807
:1015300010F0CAFB0094A22302461649022010F0C4
:10154000DBFB204607B030BD04A9104810F078F945
:10155000044628B10E4810F0B7FB0094A523EBE732
:101560000C2205990C481AF076F9084810F08AF90F
:10157000044628B1064810F0A7FB0094AA23DBE735
:10158000064B2B60DDE700BF00D50300944C002024
:101590003BD6030060D50300844C0020884C00201B
:1015A000F0B5054689B00E460320334910F08DFB97
:1015B000002D5FD0314810F063F8044660B1304828
:1015C00010F082FB0094BC2302462E49022010F04A
:1015D00093FB204609B0F0BD10F064F804460028E3
:1015E00030D1294C2378002B32D03046FFF788FFCA
:1015F0000A28044636D1254C25490320271D10F022
:1016000064FB2946052238461AF025F94223236057
:101610000323ADF810301F4B059303AB06931E4D0B
:101620001E4803940123ADF81C3005A900232B703C
:1016300010F048F9044670B1114810F045FB0094D1
:10164000DD23C1E70E4810F03FFB0094BF23BBE74A
:101650000EF006FDC6E737602B78002BB9D10EF0EF
:10166000FFFCF9E70028B4D0054810F02DFB0094EA
:10167000E823A9E70E24ACE7B2D50300F913020072
:101680003BD6030060D50300904C0020844C002022
:10169000DBD5030000400140914C0020944C002019
:1016A0001FB508220DEB020000211AF0FDF840F2F0
:1016B0000113ADF8043001AB02930A490A4B0393BE
:1016C000032010F002FB02A908480CF0FDF90446C3
:1016D00020B102460649012010F0FBFA204604B072
:1016E00010BD00BFB9D90300F5160200A04C0020C0
:1016F000F5D90300012938B50546144643D069B32E
:1017000002294FD1284A1278022A13D119462046BD
:1017100004F0FEF8042805D110212448BDE8384023
:101720000CF0E2BA00283DD0214A8221BDE83840C1
:101730000EF0D2BB012A09D1052B05D1227961888F
:10174000208804F0CDF968B31121E6E7032AFBD124
:10175000012BF9D1207804F0B3F9F4E790F82620B2
:101760001449032010F0B5FA95F826302BB107F094
:10177000E5FAB8B10E4AB121D8E707F0FBFA88B113
:101780000B4AB621D2E7022B04D0094ABC21002023
:101790000EF0A2FB22780849032010F09AFA024BBF
:1017A00022781A7038BD00BFC8420020A04C00202B
:1017B0003BD703008FD70300D5D70300B0F88420B0
:1017C000832A10B5044603D00849022010F081FA9C
:1017D000B4F88420064821460CF058FA18B105499F
:1017E000012010F072FA002010BD00BF21D80300C4
:1017F000A04C002062D80300012838B5044614D05C
:1018000045B245B1022816D00C4A4D210020BDE852
:1018100038400EF061BB0A49032010F056FA294601
:101820000848BDE838400CF05FBA0749032010F0C3
:101830004CFA2146F4E70549F8E700BF3BD703001F
:10184000A5D80300A04C0020F1D8030043D9030021
:1018500010B50446014608480CF096F82388112B71
:1018600008D107F087FA28B1044AF821BDE81040F2
:101870000EF032BB10BD00BFA04C00203BD70300D0
:1018800013B50446B8B103200C4910F01EFA0C4BF6
:1018900063600C4B236001A80B4B019304F0B2F979
:1018A00020B10A4A40F20B110EF016FB084807F06F
:1018B00071FA02B010BD0E20FBE700BF93D9030000
:1018C00051180200A1160200F91702003BD70300CD
:1018D000BD17020045DF704746DF704747DF70479E
:1018E0000648012303730268002303824FF47A73CE
:1018F00053434361836883610C307047F44C00208C
:10190000064B00221A731A749A6858745A6103F1CC
:101910000C00034A9A61FFF7E1BF00BFF44C0020BE
:1019200040420F00394B3A4A2DE9F047394C3A4DC5
:10193000DFF8FC80C3F85455C3F850254FF480728B
:10194000C3F804254FF000094223062208F11D01C7
:10195000E01C237084F8019084F8029019F07BFF5A
:101960000623AA22E3721621FE23012603274FF045
:10197000020AA273E37384F810906174A274E37492
:101980004FF01009EE23B8F82C20D8F82810637512
:1019900004F1160084F809A0A6722773677384F80F
:1019A000149019F058FF98F82C3003F11402053305
:1019B00023741A4B6270C5F8FC6FC5F81435184BC8
:1019C000C5F8183540F20313C5F8343540F25B63AF
:1019D000C5F838359623C5F83065C5F80072C5F8E6
:1019E0001075C5F844358E23C5F80493C5F8243521
:1019F0000C4BC5F81C350C4BC5F83C350B4BC5F8EA
:101A00000445C3F800A02E61BDE8F08700F0014056
:101A100040810040CC4C0020001000400601020034
:101A20002500030200D6BE895555550000E100E0AF
:101A3000F44C002002280CD003281AD0012817D11A
:101A40000F4B0222C3F808252522C3F8542518603D
:101A500070470B4B1A22C3F808252622C3F85425D9
:101A600003F5E0430122DA604FF4C872C3F8402561
:101A70007047034B5022C3F808252722EEE700BF2A
:101A80000010004070B51B4C0023636023700546B6
:101A900038B102280CD0184B5B6A3BB1082098473C
:101AA00004E0FFF73FFF154B01221A70114870BD8B
:101AB000134AD2F810110129F8D1104EC2F8103192
:101AC00031780846FFF7B6FF04290FD10D4B4FF4CC
:101AD0008072C3F80825084B1B792BB1FFF700FF74
:101AE000032360602370E1E72570DFE70131317087
:101AF000DCE700BF284D0020F44C0020244D0020DE
:101B00000010004000F0014010B5024604460F49A5
:101B1000032010F0DEF8042C17D3052C0ED9072C67
:101B200013D10B4C637983B100236371FFF7D4FEAB
:101B300058B1636A4BB1BDE810401847044C237993
:101B40001BB10020FFF7DCFEF2E710BD4ADA03000C
:101B5000F44C002010B50D490446032010F0B5F8F0
:101B60000B4B22681A6041F27C529A60224652F86E
:101B70000A0FD8619088927983F8222062695A62AC
:101B800022899A85626818849A6210BD1FDA030060
:101B9000F44C002010B50D4CA388B3B903200C49B8
:101BA00010F093F840F201130A48A380FFF792FE69
:101BB00010B1636A03B198470120FFF7A1FE20B17D
:101BC000636A13B1BDE81040184710BDF44C002003
:101BD0007EDA0300851A020008B50449032010F0DC
:101BE00074F8034B00221A7108BD00BFAADA030083
:101BF000F44C0020F8B51F4604460D4616460EF07C
:101C0000BDFF0F4B1B78834207D902460D490120C7
:101C100010F05FF80F242046F8BD20463B463246C0
:101C200029460CF043FF04460028F4D0064B074930
:101C30001A68012001321A6010F04BF8EBE700BF80
:101C4000C9420020D5DA0300304D00202DDB03000F
:101C5000024B1870024B002018607047C9420020E8
:101C6000304D002007B503788DF800300023ADF823
:101C70000230ADF80430034B68461B68984703B048
:101C80005DF804FB984D00207047000030B5284BEC
:101C90002849186887B0029002A80DF035FC044668
:101CA00070B1254810F010F8009440F22D13024650
:101CB0002249022010F020F8082C29D107B030BDAD
:101CC0001F4B8DF81400DB788DF813304FF4A023F0
:101CD00003930125052303A9ADF810308DF81250A8
:101CE0000DF058FC044630B113480FF0EDFF00949E
:101CF0004FF49C73DBE7294612480DF077FC04464D
:101D000060B10D480FF0E0FF009440F23B13CEE7C6
:101D1000094A4FF4A67120460EF0DEF80DF0BAFC29
:101D20000028CBD0044A40F24F110EF0D5F8C5E799
:101D30006DDB0300591E020071DB0300C9DB0300E9
:101D4000704D0020964D002007B54FF0A041114A7C
:101D5000D1F810351079C340D80718D5D1F810350F
:101D60005279D340DB074CBF042303230A4A8DF882
:101D7000073001210DF107000EF00CF920B1074AE0
:101D80004FF484710EF0A8F803B05DF804FB05234E
:101D9000ECE700BF704D0020651C020071DB030002
:101DA00037B50A4601460DF1020019F054FD234AE9
:101DB000BDF802301089012198428DF8051031D309
:101DC0008DF80010D18A5B1A117E93FBF1F31BB2E0
:101DD000002B2DDB918A994201DC4B1E1BB2D2698C
:101DE000D45C174B8DF804401B781BB32146154873
:101DF0000CF0ABF822460546134903200FF069FFAB
:101E000035F0080308D043F201439D4204D00F4A45
:101E1000C82128460EF060F80D4B68461B689847AD
:101E200003B030BD5189994294BF02210021C7E718
:101E30000023D4E7074B1C70EEE700BF704D002075
:101E4000944D0020584D00201BDC030071DB030083
:101E5000984D0020CA4200200378022B37B506D1E6
:101E60002B4B00221A700DF0ADFC03B030BD002BDF
:101E7000F9D14368B3F9000017F063FA9FED1E1B18
:101E80009FED1F0B04460D4618F07EFF1EA3D3E9FD
:101E9000002351EC100B17F017FD02460B462046AD
:101EA000294617F0C7FD17F08DFB1A4B07EE900A75
:101EB00093ED007AC7EE877A0A2202210DF106001F
:101EC0009FED157A67EE877AFCEEE77A17EE903A87
:101ED0009BB20533B3FBF2F303EB83035B000F4AC2
:101EE000ADF806300EF056F80028BCD00C4AE521BB
:101EF0000DF0F2FFB7E700BF000000000000244033
:101F00000000000000000040000000A0AAAAFA3F64
:101F1000544D0020904D002000007A44A11D020085
:101F200071DB030030B589B01422002103A819F039
:101F3000BBFC11238DF81930ADF81A308DF81C3028
:101F4000104B0393002305930F4B10481B788DF81B
:101F50001830012503A98DF810500BF027FF044617
:101F600068B10B480FF0B0FE0094024640F2D51362
:101F7000084902200FF0C0FE204609B030BD064BD4
:101F80001D70F9E7891C0200CA420020584D00204C
:101F900071DB0300C9DB0300944D002001460148BA
:101FA0000BF0D8BE584D0020312873B5054641D9F5
:101FB000214B9A7992B1D87906F08EFA044668B12D
:101FC0001E480FF081FE009440F2E91302461C49BE
:101FD00002200FF091FE204602B070BD0020FFF7F6
:101FE00055FE184A184801210EF020FB044630B176
:101FF00012480FF069FE00944FF4F973E6E74FF4CE
:1020000000464FF4FA7000214FF47A720023E6FB89
:10201000050119F033FA224601460C480EF018FB70
:1020200004460028D7D005480FF04EFE00944FF428
:10203000FB73CBE70124CEE7704D002071DB03007A
:10204000C9DB03008D1C020050DC0300344D00206E
:102050007FB5002800F0C280002900F0BF80604BEF
:102060004360604B03600868002800F08880D1E975
:102070000432002B72D162B101245B480FF024FEC0
:10208000009440F21A230246584902200FF034FE11
:10209000A1E0574B4FF07E521A60CA898B899A4251
:1020A000EAD3544B544E18600C1D0FCC35460FC567
:1020B00094E80F0085E80F00B3793546002B60D116
:1020C0006A794FF0A04302F5E072002143F8221034
:1020D0002A7902F5E07243F82210AA7802F5E0723C
:1020E00043F822100CF068F938B90CF037F920B138
:1020F0003D4A40F27D110DF0EFFE03233F4A28795F
:10210000039303A90CF062F920B1374A4FF4C4716C
:102110000DF0E2FE012128790CF0B8F9012168796F
:102120000CF0B4F9364B37491868039003A80DF04A
:10213000EBF9044600283DD02B480FF0C5FD009474
:1021400040F215130246294902200FF0D5FD26481A
:102150000FF0BAFD00944FF40C7394E7002A8BD073
:1021600007EE902A1344F8EE676A07EE903AF8EE0D
:10217000677A1F4B86EEA77A83ED007A8DE70E24EF
:102180007BE7F07906F072F9044630B116480FF09B
:102190009BFD009440F2222375E7F07906F0D6F912
:1021A000044600288CD010480FF08EFD009440F2B9
:1021B000252368E7144D01232B700DF083FA0446A4
:1021C00030B109480FF080FD009440F21913B9E7CF
:1021D0002B78002BFCD1204604B070BD0E24FAE70A
:1021E0009D1F0200251F020071DB0300C9DB0300F5
:1021F000904D0020984D0020704D0020491D020098
:102200006DDB0300591E0200544D002012DF7047A1
:102210006DDF70471FB51E2804AB03E9060031D0FF
:102220009DF80A309DF809209B0043EA42039DF87F
:10223000082013439DF80B2043EA02239DF80C204D
:102240004FF0A04143EA024300F5E07241F822302A
:102250009DF80D20012A17D053B27BB1022A11D06C
:102260000B480FF031FD06240246009402208B2318
:1022700008490FF041FD204604B010BD0122824004
:10228000C1F80C250020F7E78240C1F80825F9E7DE
:1022900014DD03006ADD030070B59AB060220446C5
:1022A000002102A819F000FB012302228DF8203042
:1022B0008DF825208DF82B308DF831308DF83730A2
:1022C0008DF84A308DF84C308DF84F208DF8503015
:1022D0008DF852308DF855208DF85B308DF86130D7
:1022E0008DF86730F4B1002302A918464A79012A13
:1022F00004BF9A40104303F1010308BF80B2102BC2
:1023000001F10601F2D106F07FF8054650B11848F8
:102310000FF0DAFC0095AC230246164902200FF0BC
:10232000EBFC12E002AC002623790193E3780093E2
:10233000A37862782178304605F0FCFE054638B96E
:102340000136102E04F10604EED128461AB070BDF5
:1023500007480FF0B9FC69230246064900950220A0
:102360000FF0CAFC02480FF0AFFC0095B223D3E790
:1023700014DD03006ADD03002DE9F0438BB007464E
:102380000DF10B00FFF742FF044668B122480FF041
:102390009BFC00943A230246204902200FF0ACFC3B
:1023A00020460BB0BDE8F0839DF80B3093B303A833
:1023B000FFF72EFF044628B117480FF085FC009464
:1023C0004323E8E70146122205A819F06DFADFF869
:1023D0005080DFF850900DF11206062505A819F07F
:1023E000B8FA05AB16F8012941461844013D19F029
:1023F000CBF915F0FF0504D105A9384619F087FA85
:10240000CEE705A819F0A5FA05AB4946184419F01E
:10241000BBF9E3E70224C3E714DD03006ADD030030
:102420007CCB0300BCDD0300024B186800F0010008
:10243000704700BFF0ED00E0F0B5B3B00646C02233
:10244000464902A819F007FA0025062732AB07FB18
:102450000533E8B253F8C01D9A88FFF7DBFE044647
:10246000B0B13F480FF030FCC52302463D4900940F
:1024700002200FF041FC3A480FF026FC0094E423C0
:102480000246384902200FF037FC204633B0F0BD39
:102490000135202DDAD14FF0A0430322C3F878276D
:1024A0004FF08042C3F808252F4B30491A6841F29B
:1024B000883300BF00BF00BF00BF00BF00BF00BF28
:1024C00000BF8A422FD000BF00BF00BF00BF00BFC7
:1024D00000BF00BF00BF00BF00BF00BF00BF00BF04
:1024E00000BF00BF00BF00BF00BF00BF00BF00BFF4
:1024F00000BF00BF00BF00BF00BF00BF00BF00BFE4
:1025000000BF00BF00BF00BF00BF00BF00BF00BFD3
:1025100000BF00BF00BF00BF00BF00BF00BF00BFC3
:1025200000BF00BF00BF013BC3D10121304606F010
:1025300047F8044628B10A480FF0C6FB0094EB2385
:102540009EE70120FFF7A8FE044600289DD004481E
:102550000FF0BAFB0094EE2392E700BF54DC0300B7
:1025600014DD03006ADD0300B04200200024F40003
:1025700070B50020B2B0FFF78FFE024618B11A49BD
:1025800001200FF0A6FBC022184902A819F063F938
:102590001F24062632AB06FB0433E0B253F8C01DFD
:1025A0009A88FFF737FE0546D0B111480FF08CFB33
:1025B000104900950246D82302200FF09DFB2A46C1
:1025C0000D4901200FF085FB4FF0A0430322C3F813
:1025D000782700204FF08042C3F80C2532B070BD40
:1025E00014F1FF34D6D2EFE7BEDD030054DC030064
:1025F00014DD03006ADD030016DE030070470020CF
:1026000001F052BD07B50D4B1B685A7A8DF80420B6
:1026100001A99A7ADB7A8DF8052000208DF8063022
:1026200001F07AFD02F0D8FF20B1054A40F27E5158
:102630000DF052FC03B05DF804FB00BF284E0020F3
:1026400075DE030008B505F043FD30B1034A40F2E2
:10265000B241BDE808400DF03FBC08BD75DE030087
:1026600008B5074903200FF030FB05F031FD30B10C
:10267000044A4FF47971BDE808400DF02DBC08BD47
:10268000A8E4030075DE030008B504F0AFFC30B128
:10269000034A4FF48561BDE808400DF01DBC08BD3C
:1026A00075DE03002DE9F04F2DED048B8BB0037820
:1026B00002AF0C46082B00F2FA81DFE813F00900A4
:1026C000F2001E0125014B016901E301EA01F1015C
:1026D000242A04D0A24A9D2100200DF0FDFBDFF842
:1026E0009482DFF89492DFF894A2DFF894B2002588
:1026F00054F8253038F9026B1B149E4200F3C88051
:1027000000962A465946022036040FF0F5FA44F89E
:1027100025600135092DEBD1A3682068656843F376
:102720008F1840F38F1616F0F5FD00228D4B17F031
:10273000CBF802460B4607F108008B4919F024F844
:10274000606816F0E7FD0022864B17F0BDF80246E0
:102750000B4607F10800844919F016F8A06816F036
:10276000D9FD00227F4B17F0AFF802460B4607F168
:1027700008007D4919F008F8E06816F0CBFD00224A
:10278000784B17F0A1F802460B4607F1080076498E
:1027900018F0FAFF206916F0BDFD0022714B17F00A
:1027A00093F802460B4607F108006F4918F0ECFF5A
:1027B000606916F0AFFD00226A4B17F085F80246FB
:1027C0000B4607F10800684918F0DEFFE06916F0D3
:1027D000A1FD0022634B17F077F802460B4607F184
:1027E0000800614918F0D0FFA06916F093FD00229F
:1027F0005C4B01F1004117F067F802460B4607F108
:102800000800594918F0C0FF206A16F083FD002225
:10281000544B17F059F845F38F156D4302460B469C
:1028200007F10800504906FB065618F0ADFF08FBFB
:10283000086016F06FFD41EC100B18F0E5FB51EC51
:10284000100B16F08DFEF42384B23B702246230A4F
:1028500046497B700320BC700FF03BFA40F23A739C
:102860009C4244D9062003F02BF94148828A4FF656
:10287000FF739A423BD0837DCBB3032239460BF0E2
:10288000E3FCA0B3364A40F259110DF025FB2EE0CF
:1028900039F915609E427FF73CAF00962A465146B3
:1028A00031E7102AEA4605D02D4A4FF4B1710020D5
:1028B0000DF012FB88B0DFF8CC90DFF8CCB0251F0C
:1028C00002AE0C344FF0000855F8040F16F022FD4C
:1028D00042464B4616F0F8FF02460B463046594634
:1028E00018F052FFAC4206F10706EDD1D546243769
:1028F000BD46BDEC048BBDE8F08F0C2AF7D0184A1A
:102900004FF4C2710020C0E7242AEA4605D0144AD9
:1029100040F2951100200DF0DFFA8EB0DFF86490E0
:10292000DFF868B0251F02AE20344FF0000855F8DC
:10293000040F16F0EFFC42464B4616F0C5FF024668
:102940000B463046594618F01FFFAC4206F106060A
:10295000EDD1CBE7042ACAD0014A4FF4DD71D1E7AB
:1029600075DE03000000F03E81E0030086E0030016
:10297000084E002090E403007EE4030037E00300EB
:10298000EEDF03000000103EB4E00300BBE00300F4
:102990000C2A6D4605D0484A4FF4E47100200DF032
:1029A0009BFAD4ED008A94ED019A94ED028A18EE18
:1029B000900A16F0EBFD02460B4607F108003F496E
:1029C00018F0E2FE606816F0E1FD02460B4607F1E2
:1029D00010003A4918F0D8FEA06816F0D7FD02465C
:1029E0000B4607F11800354918F0CEFEFCEEC87A08
:1029F0003349CDED007AFCEEC97A032017EE903A08
:102A0000FCEEE87A17EE902A0FF076F9FDEEE87A00
:102A1000F52317EE902A3B70FDEEC97A13B2C3F38B
:102A20000721797017EE901ABDEEC88ABB700BB201
:102A3000C3F307203B7118EE103A1BB2F870BB715C
:102A4000C3F3072052EA0103787119D11D4C062007
:102A500003F036F8A28A4FF6FF739A4210D0A37D96
:102A600073B1194903200FF030F907223946204687
:102A70000BF0EAFB20B1104A4FF4F7710DF02CFA7D
:102A8000AD4634E7022A3FF432AF0B4A40F2F71169
:102A900038E7012A3FF42BAF074A4FF4027131E7C0
:102AA000082A3FF424AF044A40F212212AE70749DA
:102AB00002200FF00AF91AE775DE0300C2E00300F6
:102AC000C9E00300084E0020FEE003002AE10300F5
:102AD00010B51D4C2278012A34D11C4B1B681B7A7F
:102AE000032B03D8DFE803F01322262A184A4FF4F9
:102AF0008B6108200DF0F0F9164902200FF0E5F87F
:102B0000022323701448BDE810400DF0E7BD134BBD
:102B10001B6818880028EFD002F0AAF80028EFD030
:102B20000B4A40F261410DF0D7F9E9E70B4B1B6806
:102B30005888EFE7094B1B689888EBE7074B1B6841
:102B4000D888E7E710BD00BF044E0020284E0020C3
:102B500075DE0300D0E30300BC4D0020244E0020AE
:102B600030B5604B604A614987B005466048FEF762
:102B7000CDF8044668B15F480FF0A6F8009440F223
:102B8000836302465C4902200FF0B6F8204607B086
:102B900030BD5A495A4800F043FD044630B155480B
:102BA0000FF092F8009440F28663EAE7D5B15048FE
:102BB000FDF7A0FF20B14F4A40F28B610DF08CF978
:102BC0004948FEF723F820B14A4A40F28E610DF0E1
:102BD00083F94B4800F0A4FC20B1464A40F29161D1
:102BE0000DF07AF9414B1B681A88643A4EF6FC11D5
:102BF00092B28A4216D85A88323A92B24EF62E20B3
:102C000082420FD89A88643A92B28A420AD8DA8805
:102C1000C83A92B24EF698118A4203D81B7A013B09
:102C2000022B08D93248FDF765FF20B1314A40F246
:102C3000BA510DF051F9314B1C683CB92D480E24A6
:102C40000FF042F800944FF4D3639AE722882D499D
:102C500003200FF03EF862882B4903200FF039F86B
:102C6000A2882A4903200FF034F86278237843EAD7
:102C70000223ADF80C30E278A37843EA0223ADF8E2
:102C80000E306279237943EA0223ADF81030A3793C
:102C9000E27943EA0223ADF81230237A8DF814303A
:102CA00003A803F0E9FD18B1124A8C210DF014F9C4
:102CB0000422002103A818F0F7FD154B15490393D2
:102CC00003200FF002F803A913480BF0F3F90446B0
:102CD00000283FF45BAF074A40F2B2610DF0FCF808
:102CE000002453E7244E002040E40300284E002037
:102CF00048E4030075DE030082E20300004E00207A
:102D000054E40300D4E203000EE3030048E30300AD
:102D1000FD25020085E30300084E0020037813B16F
:102D2000012B05D070474378012B07D104F02AB955
:102D3000034A40F24F3100200DF0CEB8704700BF7B
:102D400075DE03002DE9F0412DED028B044686B0BF
:102D50000246484903200EF0BCFF002C40F085805D
:102D600005F056F9B0EE408A05F0ECF8FDEEC87AB1
:102D70009FED417ACDED037A9DF90C503F4C07EE63
:102D8000905AF8EEE77A237878EE677AC6B267EE63
:102D9000877AFCEEE77ACDED037A9DF80C7033B3B9
:102DA000374B1B780BB39FED370A28EE008A00EBF8
:102DB0008000FDEEC87A400080B217EE901A01F054
:102DC000D5FE804688B130480EF07EFF2F49CDF801
:102DD0000080024640F2844302200EF08DFF2A4A12
:102DE00040F26D3140460DF077F800232370F12357
:102DF0008DF81430EBB21E2B8DF815308DF816704F
:102E0000234C16D9A28A4FF6FF739A4211D0A37DA4
:102E10007BB1032205A920460BF016FA20B11A4A0D
:102E200040F279310DF058F82A461A4903200EF085
:102E300050FFF223A28A8DF814304FF6FF739A42A6
:102E40008DF815600CD0A37D53B1022205A910485E
:102E50000BF0FAF920B10C4A40F287310DF03CF842
:102E600006B0BDEC028BBDE8F081074A40F28E311E
:102E70000020F3E77ADF03000000C842FC4D002089
:102E80002D4E002000007A4475DE030082E203002C
:102E9000084E0020B3DF030073B504461C4903202D
:102EA0000EF013FF94B3268865881A492B463246E4
:102EB00003200EF017FFF3238DF80030330A8DF84E
:102EC00001302B0A8DF8033023888DF80260B3F5AA
:102ED000966F8DF8045019D90F4C062002F0F0FDC2
:102EE000A28A4FF6FF739A4210D0A37D73B10B49AB
:102EF00003200EF0EAFE0522694620460BF0A4F9F5
:102F000020B1074A4FF46C710CF0E6FF02B070BDBF
:102F1000D8DE03000EDF0300084E002051DF03005F
:102F200075DE030003F0CCBC7FB571480DF0D6FB15
:102F3000044680B16F480EF0C7FE6F490094024608
:102F400040F2094302200EF0D7FE6A4A40F2517166
:102F500020460CF0C1FF69480DF0C0FB044688B163
:102F600064480EF0B1FE0094024640F247436249C5
:102F700002200EF0C1FE5F4A40F2547120460CF070
:102F8000ABFF04E003F0C8FF04460028F3D15C481F
:102F90000DF0A4FB044688B156480EF095FE00944F
:102FA000024640F2D443544902200EF0A5FE514A95
:102FB00040F2577120460CF08FFF09E0514B18701A
:102FC000514B1B7823B904F07FFF04460028EED153
:102FD0004E480DF083FB20B1464A40F29F510CF061
:102FE0007BFF002001F060F802F036FB20B1414A7F
:102FF00040F2A4510CF070FF454E3578022D6DD192
:10300000414B00221A703F4B1B7803BB04F05CFF5E
:103010000446E0B137480EF057FE009402464FF4E4
:103020009463354928460EF067FE32480EF04CFE98
:1030300000944FF4AC6302462F4902200EF05CFE70
:103040002C4A40F25D7120460CF046FF4DE03148BD
:103050000DF044FB04460028E7D10DF10E0001F00D
:10306000C7FD044630B123480EF02EFE009440F216
:103070006353E0E7284ABDF80E301268127A032A3B
:103080002AD8DFE802F0021D2125244A12681380A5
:10309000224B1868FDF7BAFD0446F8B115480EF04A
:1030A00013FE0094024640F22D53134902200EF005
:1030B00023FE10480EF008FE009440F26653BAE773
:1030C000164A12685380E3E7144A12689380DFE7D8
:1030D000124A1268D380DBE70824EAE70023337042
:1030E00001F014FF04460028AAD1002004B070BDEE
:1030F000504E002075DE030082E20300304E0020B7
:10310000DC4D00202C4E00202D4E00209C4D002038
:10311000044E0020BC4D0020284E0020244E0020EC
:10312000F7B5044601464E480AF05CFF2388102B91
:103130001CD0112B40F092804A4903200EF0C5FDAF
:10314000FFF7F2FE20B1484A40F2CB610CF0C4FE1A
:1031500040F6FF7003F038FB00287FD0424A40F26F
:10316000CE6103B0BDE8F0400CF0B6BE3F4C404924
:1031700003200EF0AAFD23683E491A8803200EF0B2
:10318000A8FD3D4B01221A7004F036FE054640B3FF
:1031900035480EF099FD009540F2F3330246374969
:1031A00002200EF0A9FD236835491A7A03200EF09B
:1031B00090FD012001F09CFD0446002839D02A48EA
:1031C0000EF082FD0094024640F24E532B4902203D
:1031D0000EF092FD244A40F2D56120460CF07CFEB0
:1031E00033E004F075FF054630B11F480EF06CFD6A
:1031F000009540F2F633D1E723681E884FF400476C
:103200004FF4FA7000214FF47A720023E6FB0701B5
:1032100018F034F92A4601461A480DF019FA054605
:103220000028C0D010480EF04FFD009540F2FB334F
:10323000B4E7154B01221A704FF061710246134832
:103240000DF006FA04460028C4D140F6FF7003F0E2
:103250002FF818B1044A4FF4DB6182E703B0F0BDE8
:10326000084E002070E1030075DE0300284E0020A8
:10327000B8E1030015E203002C4E002082E20300B7
:103280004CE20300504E0020044E0020BC4D0020B4
:1032900070B50C468CB016460546002800F0D58067
:1032A000002900F0D280002A00F0CF800320684976
:1032B0000EF00BFD674B6B60674B684A2B60336801
:1032C0000293CDE90323664B05935C2223688DF8B6
:1032D00018201722CDE90723624B0993624B0A930A
:1032E00006A801238DF82C3003F0BAFD20B15F4A07
:1032F00040F296710CF0F0FD23685F228DF81820E3
:103300001822CDE907235A4B09930DEB0200594BC4
:103310000A9304F0E7FC20B1544A40F299710CF092
:10332000DBFD23680693544B07935A238DF8203016
:1033300006A8524B099301F077FE054680B14B4831
:103340000EF0C2FC4E490095024640F2277302205F
:103350000EF0D2FC454A40F29C7128460CF0BCFDB0
:1033600023680693474B079338238DF8203006A82F
:10337000454B099302F09CF8044680B13B480EF09F
:10338000A3FC3F49009402464FF4E86302200EF08C
:10339000B3FC364A40F29F7120460CF09DFD04AA12
:1033A00002A93A4803F08EFA044668B12F480EF09D
:1033B0008BFC009440F2A3730246314902200EF0C8
:1033C0009BFC20460CB070BD314A324801210DF003
:1033D0002DF920B1254A40F2A7710CF07DFD2E4A4F
:1033E0002E4801210DF022F920B1204A40F2AA71A5
:1033F0000CF072FD2A4A2B4801210DF017F9044602
:1034000030B11A480EF060FC009440F2AD73D3E77F
:10341000254A264801210DF009F9044630B1134828
:103420000EF052FC00944FF4F663C5E7204A2148A1
:1034300001210DF0FBF804460028C2D00B480EF025
:1034400043FC009440F2B373B6E70E24B9E700BF23
:103450005DE4030021310200612B020038E5030026
:1034600028E50300F8E403001D2D020075DE0300CB
:10347000E8E40300452D020008E50300992E020050
:1034800082E2030018E50300FF250200A5260200E2
:1034900061260200E4E4030089260200A4E403009C
:1034A000452602003CE4030005260200D4DE0300AA
:1034B000D12A020038E4030010B50478436834B11F
:1034C000012C14D03BB1114A722118460BE01BB9F4
:1034D0000F4B01221A7010BD0E4901200EF0F5FBB2
:1034E0000A4A5B210020BDE810400CF0F5BC33B95E
:1034F0008389B3F5405FEED1074B1C70EBE70749BA
:1035000020460EF0E2FB014A6D21EBE7FAE50300ED
:10351000804E0020CBE50300814E002060E60300D2
:1035200010B5014688B020B3134C0922201D18F0B5
:1035300092F9422323600423ADF810300F4B05931A
:1035400003AB069305A901230D480394ADF81C3085
:103550000EF0BCF9044648B10A480EF0B5FB0094E1
:1035600002468E23084902200EF0C6FB204608B012
:1035700010BD0E24FAE700BF704E0020003001306D
:10358000844E0020FAE5030048E5030030B5082228
:1035900087B0002105460DEB020018F085F902AB5B
:1035A0001A4A43F201014FF440500EF0B9F90446B3
:1035B00060B117480EF088FB00949F23024615491E
:1035C00002200EF099FB204607B030BD04A90F4839
:1035D0000EF036F9044628B10D480EF075FB009444
:1035E000A223EBE7102205990B4818F034F907489D
:1035F0000EF048F9044628B105480EF065FB00942A
:10360000A723DBE7054B2B60DDE700BF844E0020DE
:10361000FAE5030048E50300704E0020744E0020D8
:10362000F0B50E4689B00546002857D02C480EF05C
:1036300027F8044660B12B480EF046FB0094B823EF
:103640000246294902200EF057FB204609B0F0BD82
:103650000EF028F80446002830D1244C2378002BA3
:1036600032D03046FFF792FF04460028EDD0204CC0
:1036700020490320271D0EF028FB29460922384641
:1036800018F0E9F8422323600423ADF810301A4BF8
:10369000059303AB0693194D194803940123ADF824
:1036A0001C3005A900232B700EF00CF9044670B1F4
:1036B0000C480EF009FB0094D923C1E709480EF02D
:1036C00003FB0094BB23BBE70CF0CAFCC6E73760E2
:1036D0002B78002BB9D10CF0C3FCF9E70E24B4E72A
:1036E000B9340200FAE5030048E50300804E0020EB
:1036F000704E00209AE5030000300130814E00201A
:10370000844E0020034B1B6813F83000B0FA80F0A1
:10371000400970479C4E002008B5244A13780BB925
:10372000411C40D01844C0B2012810701DD10BB10B
:10373000002008BD1E4B186803F09EFE18B11D4AFC
:10374000EC210CF0C9FB6021402003F065FF18B1AB
:10375000184AF0210CF0C0FB04F040F80028E7D034
:10376000144AF7210CF0B8FBE2E70028E0D1012B66
:10377000DED10F4B186803F07FFE18B10D4AFC2113
:103780000CF0AAFB6021002003F046FF18B1094AA3
:10379000FF210CF0A1FB04F021F80028C8D0054A55
:1037A0004FF48371DEE70220C3E700BFA14E002083
:1037B000984E0020DEE60300F7B51C4D2A68C700CE
:1037C0003A440E4652681A491268527A88568A5705
:1037D000904221D012DA0120FFF79EFF0446D8B1B3
:1037E00014480EF071FA00944FF4A4730246124983
:1037F00002200EF081FA204603B0F0BD13DD4FF039
:10380000FF30FFF789FF044630B10A480EF05CFA3A
:1038100000944FF4A773E9E728683844002443680C
:103820001B685E72E7E70224E5E700BF9C4E0020BC
:103830008AE70300DEE6030038E70300564B2DE974
:10384000F34101258540064618680F46904603F06F
:1038500013FEADB2044670B150480EF035FA009434
:1038600040F2F91302464E4902200EF045FA204676
:1038700002B0BDE8F081B8F1000F18D1294603F07D
:10388000EAFE044630B145480EF01EFA009440F2BC
:10389000FF13E7E7294603F0A7FE044600286BD094
:1038A0003E480EF011FA009440F20223DAE7B8F134
:1038B000010F19D10146284603F096FE044630B1A7
:1038C00036480EF001FA00944FF40273CAE7294615
:1038D00003F0C1FE044600284ED030480EF0F4F943
:1038E000009440F20B23BDE7002F52D07B7839784B
:1038F0002C4A1B0243EA0143F9780B43B97830465E
:1039000043EAC10103F0BFFE044630B123480EF084
:10391000DBF9009440F21B23A4E7284604F088FE5C
:1039200088B139797B7941F61F7243EA012130462B
:1039300003F0D6FE044630B118480EF0C5F90094E5
:103940004FF409738EE70021284603F084FE0446F5
:1039500030B112480EF0B8F900944FF40A7381E7C1
:10396000294603F041FE044630B10C480EF0ACF994
:1039700000944FF40B7375E703F030FF0446002802
:103980003FF475AF05480EF09FF900944FF40C73A7
:1039900068E70E246BE700BF984E0020DEE60300C8
:1039A00038E70300FFFF1F0007B54FF47F430022F5
:1039B0000093ADF80420C0B20B4629B90122FFF7ED
:1039C0003DFF03B05DF804FBFF290FBF11468DF8E2
:1039D000013002226946F2E770B5002414800646E1
:1039E000FFF790FE134B1B6803EBC60528B16978FF
:1039F00001238B401380002070BD13F83630012B5B
:103A000015D1C80742BF6878834013808B0705D55E
:103A1000A8780123834010880343138011F0040029
:103A2000EAD0E97801238B4011880B43E2E70120BB
:103A3000E2E700BF9C4E00202DE9F0435C4D2B686F
:103A4000C7003B4485B05E6833685A7A0446032A4F
:103A500000F2A980DFE802F028023328596831B368
:103A60004FF400404FF4FA784FF00009E0FB018971
:103A70004FF47A7200234046494617F0FFFC224675
:103A8000014670680CF0E4FD20B14A4A4FF4B97168
:103A90000CF022FA02212046FFF78EFE20B1454AA3
:103AA0004FF4BB710CF018FA05B0BDE8F083FFF7D6
:103AB00083FE0028F8D03F4A4FF4BE71F2E75A68FF
:103AC000002AF1D01B6828224FF4004064214FF4F3
:103AD000FA78B3FBF1F14FF0000902FB0131E0FB92
:103AE00001894FF47A7200234046494617F0C6FC1C
:103AF0002246014670680CF0ABFD20B12D4A4FF410
:103B0000C5710CF0E9F901212046FFF755FE20B1FF
:103B1000284A40F28F110CF0DFF9274B186803F0A8
:103B2000ABFC20B1234A4FF4C9710CF0D5F92B68D6
:103B30001F440DF10E027B681B682046197AFFF7BF
:103B40004BFF20B11B4A40F295110CF0C5F9BDF8AE
:103B50000E500021284603F047FD0446B8B1154831
:103B60000EF0B2F80094C7230246144902200EF06A
:103B7000C3F8104A4FF4CC7120460CF0ADF903F0B5
:103B80002DFE002890D00B4A40F29B118AE729466F
:103B900003F02AFD04460028F1D006480EF094F800
:103BA0000094CA23E0E7034A40F2AD11012079E70F
:103BB0009C4E0020DEE60300984E002038E703000C
:103BC0002DE9F04786B0044690461F460E46FFF7A3
:103BD00099FD2C4B1A6802EBC403A0B13A785878CF
:103BE000FFF72CFE044650B127480EF06DF8009404
:103BF00040F281230246254902200EF07DF820463E
:103C000006B0BDE8F08712F83420012A38D15A787E
:103C100003929A78DB78059340F20123ADF80830DF
:103C2000042304928DF80A3005460DF10C090DF1BC
:103C3000080A98F8002015F80A3019F825001A42E9
:103C40000CD03A783146FFF7F9FD044698B10E489A
:103C50000EF03AF8009440F28E23CBE70122314671
:103C6000FFF7ECFD044630B107480EF02DF8009444
:103C700040F29323BEE70135032DDAD10024BEE7DD
:103C80000124BCE79C4E0020DEE6030038E7030079
:103C90002DE9F04FB34D2B684FEAC00A53440F464D
:103CA0005B6809781A68D7F80C90117287B00646DD
:103CB00058680CF013FDA846044658B1AA480EF007
:103CC00003F8009440F2B3230246A84902200EF004
:103CD00013F823E00DF10E0207213046FFF77CFEBA
:103CE000044630B1A0480DF0EFFF009440F2B62337
:103CF000EAE704AA391DBDF80E0004F0ABFC012868
:103D000005460FD998480DF0DFFF009502464FF4A5
:103D10002F73964902200DF0EFFF2C46204607B086
:103D2000BDE8F08F9DF810209DF812509DF81330DB
:103D30009ABB9DF81120FF2A16D19DF8141043EA72
:103D400005020A439DF815100A431AD18DF80D405B
:103D500001259DF80D30042BE0D8DFE813F0280092
:103D6000460064008300DD005AB9F5B99DF81420BF
:103D70009DF815101A430A4310D101258DF80D50F6
:103D8000E7E795B99DF814209DF815101A430A43EA
:103D900004D102238DF80D30DBE735B90322B3FAE5
:103DA00083F58DF80D206D09D3E70422F7E7002194
:103DB0003046FFF701FD044630B16B480DF084FF3B
:103DC00000944FF432737FE70DF10D033A4604A9D6
:103DD0003046FFF7F5FE044600289FD062480DF0FC
:103DE00073FF009440F2CB236EE700213046FFF7CB
:103DF000E3FC044630B15C480DF066FF009440F2ED
:103E0000D12361E70DF10D033A4604A93046FFF7CF
:103E1000D7FE0446002881D053480DF055FF00948A
:103E20004FF4357350E703213046FFF7C5FC0446D5
:103E300030B14D480DF048FF009440F2DA2343E7DB
:103E40000DF10D033A4604A93046FFF7B9FE0446CA
:103E500000283FF463AF44480DF036FF009440F271
:103E6000DD2331E701213046FFF7A6FC814668B12A
:103E70003D480DF029FFCDF8009040F2E3230246C3
:103E80003A4902200DF038FF4C4647E70DF10D038B
:103E90003A4604A93046FFF793FE814638B13248CE
:103EA0000DF012FFCDF8009040F2E623E7E7002D79
:103EB0003FF434AFD8F8003079689A447B69DAF877
:103EC00004400B44B96922680B44506013602822F7
:103ED0004FF4004064214FF4FA78B3FBF1F14FF056
:103EE000000902FB0131E0FB01894FF47A720023E3
:103EF0004046494617F0C2FA3246014660680CF067
:103F0000A7FB044600283FF409AF17480DF0DCFE7C
:103F1000009440F2F223D7E6B5B1002301213046E8
:103F20008DF81230FFF748FC834608B30E480DF0B9
:103F3000CBFECDF800B04FF43F7302460B49022090
:103F40000DF0DAFE5C46E9E603213046FFF734FC6B
:103F5000834668B104480DF0B7FECDF800B040F2DA
:103F60000133EAE79C4E0020DEE6030038E7030059
:103F70000DF10D033A4604A93046FFF721FE8346B2
:103F800038B11F480DF0A0FECDF800B040F2053367
:103F9000D3E7002D3FF4C2AED8F8003079689A44D8
:103FA0007B69DAF804400B44B96922680B44C2F813
:103FB0000490136028224FF4004064214FF4FA78F3
:103FC000B3FBF1F14FF0000902FB0131E0FB018985
:103FD0004FF47A7200234046494617F04FFA3246B2
:103FE000014660680CF034FB044600283FF496AEAE
:103FF00003480DF069FE009440F2113364E600BFFF
:10400000DEE6030010B5254B25481A78254C012320
:104010004FF0A04103FA02F2C1F80C25006800BF7E
:1040200000BF00BF00BF00BF00BF00BF00BFA04275
:104030002FD000BF00BF00BF00BF00BF00BF00BF48
:1040400000BF00BF00BF00BF00BF00BF00BF00BF78
:1040500000BF00BF00BF00BF00BF00BF00BF00BF68
:1040600000BF00BF00BF00BF00BF00BF00BF00BF58
:1040700000BF00BF00BF00BF00BF00BF00BF00BF48
:1040800000BF00BF00BF00BF00BF00BF00BF00BF38
:1040900000BF013BC3D1C1F8082510BDA04E0020D0
:1040A000B04200200024F400174B10B51B68013B00
:1040B00083428AB001D3102808D90122134910463F
:1040C0000DF007FE012420460AB010BD0023049322
:1040D00006938DF81C30CDE908338DF8143003A910
:1040E00007238DF80C30FFF7D3FD04460028EAD0F3
:1040F00007480DF0E9FD0094024640F25A330549A5
:1041000002200DF0F9FDDEE7944E002090E603005A
:10411000DEE6030038E703004D4B1B68013B83429A
:104120002DE9F34107460D4601D3102809D9012294
:10413000484910460DF0CDFD0124204602B0BDE8EF
:10414000F08100297FD0FFF7DDFA00287DD1424EB3
:1041500033684FEAC70843445B681A6810725868AE
:104160000CF0BCFA0446B0B13C480DF0ADFD009433
:1041700040F2592302463A4902200DF0BDFD37486E
:104180000DF0A2FD0094024640F283333449022030
:104190000DF0B2FDD1E72B78013BDBB2FD2B16D938
:1041A0006B78013BDBB2FD2B11D9AB78013BDBB265
:1041B000FD2B0CD901463846FFF7FEFA044698B1AC
:1041C00026480DF081FD00944FF41873D2E70321C7
:1041D0003846FFF7F1FA044630B120480DF074FD7F
:1041E000009440F26523C5E7336829784344587842
:1041F000FFF7DAFB044630B118480DF065FD009476
:1042000040F26923B6E73368697843449878FFF74A
:10421000CBFB044630B111480DF056FD00944FF42D
:104220001B73A7E73368A978984498F80300FFF751
:10423000BBFB0446002880D008480DF045FD0094E3
:1042400040F26F2396E70E2477E7032475E700BF5B
:10425000944E002090E603009C4E0020DEE6030012
:1042600038E70300184B1B68013B834237B504460F
:104270000D4601D3102808D90122144910460DF02B
:1042800028FD0124204603B030BDC1B1FFF7BAFEBE
:104290002046FFF737FAA0B920462946FFF7F8FC79
:1042A00004460028EED00A480DF00EFD00940246A8
:1042B00040F2B233074902200DF01EFDE2E70E2462
:1042C000E0E70324DEE700BF944E002090E6030001
:1042D000DEE6030038E703002DE9FF4700238946A7
:1042E000ADF80E30002800F071810368002B00F05B
:1042F0006D815A68002A00F069818268002A00F006
:1043000065810479611E0F290CD9B14801240DF093
:10431000DBFC009440F2C5330246AE4902200DF0AA
:10432000EBFC14E14179072907D9A94801240DF0D4
:10433000CBFC00944FF47373EEE71D78012D07D981
:10434000A34801240DF0C0FC009440F2D333E3E70E
:10435000A14EDFF898A23360A04F037BA04D8AF8EE
:104360000030A04B3C6029709F4C013943FA01F1A9
:104370004FF2F000226004F055FC03F077F820685B
:1043800003F07AF8044630B191480DF09DFC00949A
:104390004FF47A73C0E7B9F1000F0AD003F0C2F905
:1043A000044630B18A480DF08FFC009440F2ED33A2
:1043B000B2E728780001702100F0F00003F040F926
:1043C000044630B182480DF07FFC009440F2F23395
:1043D000A2E79AF80030FF2B19D00421084603F019
:1043E0002FF9044630B17A480DF06EFC00944FF47A
:1043F0007E7391E79AF800104FF0A04201F5E07348
:10440000032042F8230001238B40C2F80835002521
:10441000DFF8DC91A8463B68AB420CD803F0DEF92C
:104420000446002800F0938069480DF04DFC00948C
:1044300040F2354370E733684FEAC50A53444A46B1
:10444000586850F8043B002183F809800CF0EEF81E
:10445000044630B15E480DF037FC009440F204434E
:104460005AE70DF10E0207212846FFF7B5FA044678
:1044700030B157480DF028FC009440F207434BE759
:10448000BDF80E1003F010F8044630B150480DF09E
:104490001BFC009440F20B433EE70146BDF80E00C2
:1044A00003F0A2F8044630B149480DF00DFC009429
:1044B00040F20E4330E7BDF80E1003F024F8044636
:1044C00030B143480DF000FC009440F2114323E763
:1044D000BDF80E1003F02FF8044630B13C480DF043
:1044E000F3FB009440F2144316E7BDF80E1003F0FE
:1044F0003AF8044630B136480DF0E6FB009440F23D
:10450000174309E72846FFF7FDF820B33368534403
:104510000124597810290ED804FA01F189B200203B
:1045200003F039F80446B0B129480DF0CDFB0094F2
:1045300040F21F43F0E626480DF0C6FB0094024609
:1045400040F21C43234902200DF0D6FB01242046F3
:1045500004B0BDE8F087336813F80A40012C03EB80
:104560000A0131D14B78102B06D919480DF0ACFB5C
:10457000009440F22543CFE68A78102A06D91448E1
:104580000DF0A2FB00944FF48563C5E6C9781029AD
:1045900006D90F480DF098FB009440F22B43BBE680
:1045A00004FA02F204FA03F313438C401C43A1B251
:1045B000002002F0F0FF044630B105480DF084FB06
:1045C00000944FF48663A7E6013524E70E24BEE786
:1045D000DEE6030038E703009C4E0020944E0020E6
:1045E000904E002080841E00984E0020A04E002097
:1045F000393A020013B50A4608490C68034654B11B
:1046000000202178009060680AF0A2FBB0FA80F0E8
:10461000400902B010BD2046FBE700BFA44E0020B9
:10462000F0B5104B85B00F468DF80F001868A0B19B
:10463000067845680124009423460DF10F023146A7
:1046400028460AF085FB50B923463A4631462846AB
:104650000AF092FBB0FA80F0400905B0F0BD0020EE
:10466000FBE700BFA44E0020F0B5104B85B01B68DF
:104670008DF80F000F46164613B9002005B0F0BDA7
:104680005C681D78012300930DF10F022946204636
:104690000AF05EFB0028F0D13B4632462946204610
:1046A0000AF06AFBB0FA80F04009E7E7A44E002068
:1046B000014B00221A607047A44E002070B50A4ECC
:1046C0003368044613B10125284670BD1A46D0E967
:1046D0000101FDF78FFA05460028F4D160680AF061
:1046E00077FA3460F0E700BFA44E0020014608B519
:1046F0000020FFF795FF80F00100C0B208BD014621
:1047000008B50120FFF78CFF80F00100C0B208BDA2
:10471000F0B5084285B004460D462CD150EA01039D
:1047200029D013F0830726D1144E336813B9012022
:1047300005B0F0BD0DF10B010120FFF771FF00285E
:10474000F5D09DF80B301C43336824EA05048DF83E
:104750000B40002BEBD019785868009701238DF897
:104760000C3003AA02238DF80D400AF0F1FA003054
:1047700018BF0120DCE70220DAE700BFA44E0020CA
:10478000042837B505460C4654D8002952D02B4B87
:104790006A46195C0220FFF767FF00284CD0013DF4
:1047A000032D03D8DFE805F0130C1B2D9DF8002026
:1047B0009DF8013003EB02232380002003B030BDBD
:1047C0009DF800209DF8013003EB022323809DF823
:1047D00002209DF8033003EB02236380EDE79DF890
:1047E00000209DF8013003EB022323809DF8022076
:1047F0009DF8033003EB022363809DF8043023719E
:10480000DBE79DF800209DF8013003EB02232380B5
:104810009DF802209DF8033003EB02236380BDF86E
:104820000430A3809DF806209DF8073003EB022397
:10483000E380C2E70220C1E70120BFE78EE7030063
:1048400013B50523B0F57A7F8DF8003043D801F514
:10485000C344224B28349C423DD80A22B0FBF2F3D9
:1048600002FB130292B2072ADBB223D901335B00A9
:10487000DBB24FF47A718DF8013000238DF80230ED
:1048800040F2ED22B4FBF1F301FB13419142DBB2A4
:1048900018DD01335B00DBB28DF80330694600237D
:1048A00005208DF80430FFF7A5FE80F00100C0B2AE
:1048B00002B010BD5B00033ADBB2042A98BF43F09C
:1048C0000103D6E75B00FA39DBB2B1F5FA7F38BFF6
:1048D00043F00103E0E70220EAE700BFF82401000B
:1048E00013B5044678B101AA02211120FFF7BCFEDE
:1048F00058B19DF805209DF8043003EB0223238076
:10490000002002B010BD0220FBE70120F9E707B547
:104910008DF80500000A11238DF8060001A9032077
:104920008DF80430FFF766FE80F00100C0B203B0DE
:104930005DF804FB08B5014630B12020FFF770FE9A
:1049400080F00100C0B208BD0220FCE7014608B5B6
:10495000E020FFF765FE80F00100C0B208BD07B59A
:10496000F4230DF106008DF80730FFF7BFFE70B994
:104970009DF80630DB060AD50DF107010120FFF78F
:1049800039FE80F00100C0B203B05DF804FB0120E5
:10499000FAE7000010B5074C23684BB158680AF0DD
:1049A00027F9236858680AF03BF90020206010BD01
:1049B0000120FCE7A44E00201F4B204A1B6800BFCB
:1049C00000BF00BF00BF00BF00BF00BF00BF9342D9
:1049D0002FD000BF00BF00BF00BF00BF00BF00BF9F
:1049E00000BF00BF00BF00BF00BF00BF00BF00BFCF
:1049F00000BF00BF00BF00BF00BF00BF00BF00BFBF
:104A000000BF00BF00BF00BF00BF00BF00BF00BFAE
:104A100000BF00BF00BF00BF00BF00BF00BF00BF9E
:104A200000BF00BF00BF00BF00BF00BF00BF00BF8E
:104A300000BF0138C3D17047B04200200024F40009
:104A400013B51420FFF7B8FF0C2003F07FFD0446D8
:104A500040B93220FFF7B0FF094802B0BDE810406E
:104A6000FFF72CBE07480DF02FF90094024657239C
:104A7000054902200DF040F9204602B010BD00BFEC
:104A8000AC4E002093E70300EEE7030013B5FFF7F9
:104A900081FF044660B10C480DF016F900946623BE
:104AA00002460A4902200DF027F9204602B010BD47
:104AB0000C2003F011FD04460028F6D002480DF04A
:104AC00003F900946923EBE793E70300EEE70300A3
